:100000000C9481020C949F060C94A4060C9400009E
:100010000C9412110C9400000C9400000C9400003D
:100020000C9400000C94C1070C9400000C94000088
:100030000C9400000C9405060C9400000C944D06E2
:100040000C9400000C9400000C9400000C94000030
:100050000C940000000000000000005F000000079A
:10006000000700147F147F14242A7F2A1223130808
:10007000646236495522500005030000001C2241ED
:10008000000041221C0014083E081408083E08081D
:1000900000503000000808080808006060000020D8
:1000A000100804023E5149453E00427F4000426133
:1000B0005149462141454B311814127F10274545BF
:1000C00045393C4A494930017109050336494949D6
:1000D00036064949291E0036360000005636000013
:1000E00008142241001414141414004122140802AC
:1000F00001510906324979413E7E1111117E7F4935
:100100004949363E414141227F4141221C7F4949B4
:1001100049417F090909013E4149497A7F08080898
:100120007F00417F41002040413F017F0814224170
:100130007F404040407F020C027F7F0408107F3EDA
:100140004141413E7F090909063E4151215E7F0937
:10015000192946464949493101017F01013F404083
:10016000403F1F2040201F3F4038403F6314081489
:100170006307087008076151494543007F4141000A
:1001800002040810200041417F00040201020440E3
:1001900040404040000102040020545454787F48FD
:1001A0004444383844444420384444487F38545404
:1001B0005418087E0901020C5252523E7F08040472
:1001C0007800447D40002040443D007F10284400DA
:1001D00000417F40007C041804787C0804047838CF
:1001E000444444387C14141408081414187C7C0803
:1001F0000404084854545420043F4440203C4040E8
:10020000207C1C2040201C3C4030403C44281028CE
:10021000440C5050503C4464544C44000836410057
:1002200000007F0000004136080010080810087820
:10023000464146780000E7E7E7E7E700E7E7E7E75A
:10024000E70001000A0001000A00010001000000AF
:10025000000000000000000000000000000000009E
:10026000000000000000000000000000000000008E
:10027000000000000000000000000000000000007E
:1002800000000000000001000000000025640025BF
:10029000302E326600203C414B424F544B49543E75
:1002A00000524F424F542057414C4C00574849543C
:1002B00045204C494E4500464F4C4F574552004251
:1002C0004C41434B204C494E4500424C5545544F00
:1002D0004F54480044524956450054455354204D0C
:1002E0004F544F52004D6F746F724C004D6F746FCE
:1002F00072520054455354205541525400544553B2
:100300005420495200302E00312E00322E00332E60
:1003100000342E00352E00362E00372E003C53457B
:100320004C4620544553543E002A2A2A2A2A2A2A77
:100330002A2A2A2A2A00524320534552564F003176
:100340002E524F424F542057414C4C00322E424CBB
:100350005545544F4F54482000332E574849544573
:10036000204C494E4500342E424C41434B204C49D1
:100370004E4500352E54455354204D4F544F520096
:10038000362E5445535420495220202000372E54F5
:1003900045535420524620202000382E54455354B3
:1003A00020554152542000392E5243205345525675
:1003B0004F200031302E55504441544520524200C8
:1003C0004D41494E2050524F4752414D00002D4E55
:1003D000414E000001002D4E414E00494E460000A6
:1003E0000100020034020500C50336020500CA03FD
:1003F0003C020100BD0442020100E8044402010085
:10040000EA0446020100EC0448020100EE044A023C
:100410000C00600295020B006C02A1020B00770237
:10042000AC0208008202B7020B008A02BF02080079
:100430009502B7020A009D02CA020600A702D40272
:100440000B00AD02DA020700B802E5020700BF02A6
:10045000EC020A00C602F3020800D002FD0203000B
:10046000D80205030300DB0208030300DE020B03CE
:100470000300E1020E030300E40211030300E7029C
:1004800014030300EA0217030300ED021A030C0031
:10049000F0021D030D00FC022903090009033603C5
:1004A0000D0012033F030D001F033F030D002C033B
:1004B0004C030D00390359030D00460366030D007C
:1004C000530373030D00600380030D006D038D0360
:1004D0000D007A039A030C008703A7030D00930312
:1004E000B3030B00A00396020D00AB0329030D001C
:1004F000B803C00306000400860201002205D403ED
:100500000000F894EE27ECBBF1E0F5BFE5BFF8E1A1
:10051000F1BDE1BD8DE0A2E0BB27ED938A95E9F73F
:1005200080E098E0A0E6ED930197E9F7E0EEF3E0D4
:1005300085919591009761F0A591B59105901590E1
:10054000BF01F00105900D920197E1F7FB01F0CF9B
:10055000EFE5EDBFE8E0EEBFC0E6D2E00C94F111AC
:10056000E1E5EDB9E0E0EEB988EC90E00197F1F754
:10057000AB98AA9AE0E3EA93E5ECF3E00E947E14DC
:10058000EAE2EA93EAECF3E00E947E14E1E2EA9305
:10059000E0E0EA932CD0E2E2EA93E1E0EA9327D0AC
:1005A000E5E2EA93E2E0EA9322D0E1E3EA93E0E2D3
:1005B000EA931DD0E6E2EA93E7E0EA9318D0E0E29E
:1005C000EA93EEE0EA9313D00895E881EA930E945B
:1005D00090120C94E3061A93AA98E981EA93F5DF46
:1005E000E0E00E948614AA9AE12F1881F3C21A93C0
:1005F000AA98EA810E948614E981EA93E6DFAA9A22
:10060000E12F18815DC21A930A93AA98ED810E9486
:10061000861400E0EA810E1780F4E02FAB81BC81E4
:10062000F0E0EA0FFB1FFF93EF93E0E0EA93CDDFEA
:10063000AF91BF91EC930F5FEDCFAA9AE12F198193
:100640000881269608951A930A93AA98EE810E942B
:10065000861400E0EA81FB81A02FB0E0AE17BF074F
:1006600048F4AC81BD81ED91AC83BD83EA93ADDFED
:100670000F5FF0CFAA9AE12F19810881279608957C
:10068000AB98E0E2EA93E7E0EA93B1DFAB9A84E06B
:1006900091E00197F1F708951A930A9310E0E7E0CB
:1006A000EA9399DF0E2F06FF0BC0AB98E1E6EA93C1
:1006B000EB81FC81FA93EA93E0E2EA93A4DF11E094
:1006C000E7E2EA930A9393DFAB9AE12F198108815D
:1006D000D9C1A881B9810E94C11A1CF4E881F981AD
:1006E00079C2E881F9810E94CD1974C20E948B14ED
:1006F00009F010F40C947E030E949B140E94A21433
:100700000E94A71409F010F40C9488030E94AC1402
:100710000CC00E948B1410F40E949B140E94A2141F
:100720000E94A71410F40E94AC140E94851A6096CF
:1007300008950E94B014AA81BB810E94C11A14F4CA
:10074000AE9A07C0AE98EA81FB810E94CD19EA8378
:10075000FB83EA81FB810E94BA14A881B9810E94BF
:10076000C11A14F4AF9A07C0AF98E881F9810E94CA
:10077000CD19E883F983E881F981E093DE04F093F1
:10078000DF0480C16C970E94CB1AABA5BCA5EFA17A
:10079000F8A5EA1BFB0B8F01ADA5BEA5EDA1FEA13F
:1007A000EA1BFB0B9F01ABA5BCA5EFA5F8A9EA1BB3
:1007B000FB0BE887F987ADA5BEA5E9A9FAA9EA1B55
:1007C000FB0BEE83FF83EBA1FCA1309731F441E0FA
:1007D00050E0E0E0E8A3E9A333C0EA35A0E0FA077F
:1007E00039F440E050E0E1E0F0E0E8A3F9A328C0EC
:1007F000E43BA0E0FA0731F44FEF5FEFE0E0E8A35D
:10080000E9A31EC0E63AAFEFFA0739F440E050E042
:10081000EFEFFFEFE8A3F9A313C041E050E0EBA135
:10082000FCA10E94BF140E94A413DA010E94DE19E9
:100830000E94A31A0E941019DE0190960E94C6140D
:10084000EE81FF810E94BF14EC85FD850E94BF14DC
:100850000E943314DE015E960E94C614F9010E94C4
:10086000BF14F8010E94BF140E943314DE015C968D
:100870000E94C614FA01A885B985EA0FFB1FEC8710
:10088000FD87E8A1F9A1AE81BF81EA0FFB1FEA87CE
:10089000FB870E94BF14E889F9890E94BF140E9457
:1008A0003314DE0158960E94C614AC8DBD8DE88DC0
:1008B000F98DEA1BFB0BEE8BFF8B0E94CB14DF0143
:1008C000CB01EBEDFFE069E470EC0E94A31988F422
:1008D0000E94CB14ABEDBFE089EC90E40E94C018FD
:1008E000DE0156960E94C6140E94D21414F40E948F
:1008F000D9140E94CB140E94E01409F010F40C9457
:1009000092040E94CB14ABEDBFE089EC90E40E940E
:10091000E914DE0156960E94C6140E94D21414F403
:100920000E94D914EE8DFF8D0E94BF140E94EE1418
:100930000E94EE14DBDEDE0154960E94C614EE8D9A
:10094000FF8D0E94BF140E94EE140E94EE14E1DE9F
:10095000DE0152960E94C614A88DB98DEE8DFF8DD2
:10096000EA1BFB0BFA93EA93B4DE0E94D9190E94AA
:1009700086180E94E01409F010F40C94E304EA894C
:10098000FB89AC8DBD8DEA17FB0729F0EC89FD8949
:10099000EA17FB0709F40FC0EC8DFD8DAC89BD890A
:1009A000AE17BF073CF4EA89FB89AC8DBD8DAE174D
:1009B000BF070CF008C0AE89BF89EFE0F0E00E94ED
:1009C0002E1AEE8BFF8BEAA1F0E0E636A0E0FA07E4
:1009D00071F40E94F1143F96E88BF98B0E94F11498
:1009E000AFE0B0E0AE1BBF0BAE87BF8713C0E236EF
:1009F000A0E0FA0779F40E94D9140E94F114AFE044
:100A0000B0E0AE1BBF0BA88BB98B0E94F1143F96D0
:100A1000EE87FF87E889F989E093B904F093BA0477
:100A2000EE85FF85E093BB04F093BC040E94D21ACC
:100A3000E7960895AC9902C0AC9A01C0AC980895AD
:100A4000AD9902C0AD9A01C0AD980895E881EFB9A3
:100A5000779BFECFB8C1E981E03011F4C29801C0A4
:100A6000C29AC19AC198E881EA93F0DFC19AB2C0F4
:100A7000E0E0EA93EB81E0640E94F814E981E06829
:100A8000EA93E9DF249608950E94FE140530E0E021
:100A90001E072CF40E940B150F5F1F4FF7CF0BC0E2
:100AA0000E94FE140530E0E01E072CF40E940B1596
:100AB0000F5F1F4FF7CFE1E00E941C1519810881DD
:100AC00023960895A881B981EC91E03031F0ED9141
:100AD000A883B983EA93D8DFF5CF7CC00E942115A3
:100AE000083FE1E01E0734F4E1E00E941C150F5FAF
:100AF0001F4FF6CF0CC00E942115083FE1E01E07F2
:100B000034F4E1E00E941C150F5F1F4FF6CFE0E0C8
:100B1000F0E00E94281509911991089525971A93DC
:100B200010E0153030F40E9430150E9433151F5F1D
:100B3000F8CF11E0153038F40E9430150E944915A5
:100B4000AFDF1F5FF7CF31C0C0988BE18A95F1F717
:100B5000C09A0E945715E0E0EA93E1E20E94F8147F
:100B6000EFEB0E94F814E6E00E94F814E3E10E9423
:100B7000F814E0E20E94F814ECE0EA936CDF0895C8
:100B800025971A9310E0153030F40E9430150E941A
:100B900033151F5FF8CF10E0153038F40E94301580
:100BA0000E94491571DF1F5FF7CF188128960895BD
:100BB000A981AA2342F4A881B981E0E0F0E00E9473
:100BC0005D15EDE201C0E0E2EA935EDFE881F981C4
:100BD0000E94621522960895EDB1E065EDB9709A14
:100BE0000895B2DF7BDFE0E6F2E00E94661508952B
:100BF000E881E064E7B98BE18A95F1F7369A349B96
:100C0000FECF349AE4B1F5B1DEC0AA93EA93FA9329
:100C1000EFB7EA931A930A931BB10CB1E12FEC7171
:100C2000D9F4E0910E05EF5FE0930E050E946A157E
:100C30000083A0910E05A83019F4E0E0E0930E05C2
:100C4000A0911005AF5FA0931005A83029F4E0E053
:100C5000E0931005689420F8099119913AC01A930D
:100C6000E0911005E030E1F3E0910F05EF5FE093D4
:100C70000F050E946A151081A0910F05A83019F484
:100C8000E0E0E0930F05F894E0911005E150E09367
:100C900010057894E12F19910895AA93EA93FA9395
:100CA000EFB7EA93E0911B05E03099F0E150E09353
:100CB0001B05E0911A05EF5FE0931A050E946F157E
:100CC000E081ECB9A0911A05A83019F4E0E0E093B6
:100CD0001A05E991EFBFF991E991A9911895A091B1
:100CE0001B05A830E1F3F894E0911B05E03011F406
:100CF0005D9916C0E0911905EF5FE09319050E9418
:100D00006F15A881A083A0911905A83019F4E0E01F
:100D1000E0931905E0911B05EF5FE0931B0502C00E
:100D2000E881ECB978944FC0E0E0EBB9E8EDEAB9BE
:100D3000E6E0E0BDE0E0E0BDECE0E9B908950E9446
:100D40007415A2E0B5E004C00E947415A4E0B5E0FB
:100D5000ED91FD913196FE93EE93E991EFBFF991FC
:100D6000E991B991A9911895EBB7E06CEBBFE5E07B
:100D7000E5BFE0E0E4BFE0ECEABF08950E94B014F4
:100D8000AE9A0E947B151FC00E94B014AE980E94BC
:100D90007B1519C00E94B014AE9AE0E0F0E0FBBDF4
:100DA000EABDE093DC04E093DD0408950E94B014F2
:100DB000AF9A03C00E94B014AF98E881F0E0E093CE
:100DC000DE04F093DF04219608950E94B014AF9AD8
:100DD000E0E0F0E0F9BDE8BDE093DE04E093DF047D
:100DE00008956C97EC8DFD8D6E8D7F8D0E944F1850
:100DF000E883F983E8A1F9A16AA17BA10E944F18B9
:100E0000EA83FB83ECA1FDA16EA17FA10E944F1894
:100E1000EC83FD83E8A5F9A56AA57BA50E944F1880
:100E2000EE83FF83ECA5FDA56EA57FA50E944F185C
:100E3000E887F987E8A9F9A96AA97BA90E944F1850
:100E4000EA87FB87ECA9FDA96EA97FA90E944F182C
:100E5000EC87FD87FE01DE011E968EE00E94B31A2C
:100E6000FE013E968EE01FB6F894E8960895E4E001
:100E7000E13069F40E947E150E94A415E093850478
:100E8000F0938604609387047093880479C0E230FD
:100E900089F40E947E150E94CD15E0939904F09389
:100EA0009A0460939B0470939C040E94DE150E9438
:100EB000EB1566C0E33081F5E0E0E0939D04E0933C
:100EC0009E04E0939F04E093A004E093A104E093C8
:100ED000A204E093A304E093A404E0E0F0E060E760
:100EE00071EC0E94F8150E94F815E093A904F093A4
:100EF000AA046093AB047093AC040E940516E0E072
:100F0000F0E060EA71E4E0938504F0938604609376
:100F100087047093880434C0E43069F40E947E151D
:100F20000E94A415E0938504F093860460938704DF
:100F30007093880425C0E53089F40E947E150E94D4
:100F4000CD15E0939904F0939A0460939B047093F9
:100F50009C040E94DE150E94EB1512C0E63081F45D
:100F60000E947E150E940516E0E0F0E060EA71E460
:100F7000E0938504F093860460938704709388045B
:100F800008950E941E16ACECB4E00E942C16AEEC44
:100F9000B4E00E942C16A0EDB4E00E942C16A2ED45
:100FA000B4E00E942C16A091CC04B091CD04AB3FCC
:100FB000E0E0BE0710F40C94D50824970E94321686
:100FC000E0E0EA83EB83A091DA04B091DB040E94B5
:100FD0003616EA1BFB0BE093D604F093D704A091DE
:100FE000D804B091D9040E943B16EA1BFB0BE09396
:100FF000D404F093D5040E943B16E093D804F093F8
:10100000D9040E943616E093DA04F093DB04E0E0A2
:10101000E093CC04E093CD04A091D604B091D70422
:10102000E091DE04F091DF04EA1BFB0BEA83FB8313
:10103000A091EA04B091EB040E94111A0E9440169C
:10104000EA0FFB1F0E9445160E944016A536E0E0FD
:10105000BE0724F0E4E6F0E00E9445160E94401628
:10106000AC39EFEFBE0724F4ECE9FFEF0E94451620
:10107000EA81FB81A091E804B091E9040E94111A71
:10108000EC59FF4F0E944016EA0FFB1FE093E60465
:10109000F093E704A091E604B091E704A030E1E00A
:1010A000BE0734F0EFEFF0E0E093E604F093E704DE
:1010B000A091E704AA232AF4E0E0E093E604E09399
:1010C000E704A091D404B091D504E091DC04F09140
:1010D000DD040E945D15E881F981A091EE04B091D4
:1010E000EF040E94111A0E944A16EA0FFB1F0E9489
:1010F0004F160E944A16A536E0E0BE0724F0E4E64B
:10110000F0E00E944F160E944A16AC39EFEFBE077E
:1011100024F4ECE9FFEF0E944F16E881F981A091D9
:10112000EC04B091ED040E94111AEC59FF4F0E949B
:101130004A16EA0FFB1FE093E404F093E504A09144
:10114000E404B091E504A030E1E0BE0734F0EFEF35
:10115000F0E0E093E404F093E504A091E504AA2311
:101160002AF4E0E0E093E404E093E504E091DE0497
:10117000F091DF04309729F0E091E604F091E70464
:1011800002C0E0E0F0E0F9BDE8BDE091DC04F091E0
:10119000DD04309729F0E091E404F091E50402C009
:1011A000E0E0F0E0FBBDEABD2496A091CE04B09152
:1011B000CF041B9720F0A091F404A13009F025C0C2
:1011C00022970E9432160E945416A091F204B09108
:1011D000F3040E945D15E091F004F091F104A88100
:1011E000B981EA17FB0758F4D5DDEFDDE0E0E093C5
:1011F000F4040E945416E093F204F093F304E0E048
:10120000E093CE04E093CF042296A091D004B09155
:10121000D1041B9720F0A091F904A13009F025C05A
:1012200022970E943216A091F704B091F8040E9410
:101230003B160E945D15E091F504F091F604A8813B
:10124000B981EA17FB0758F4A5DDBFDDE0E0E093C4
:10125000F9040E943B16E093F704F093F804E0E0F1
:10126000E093D004E093D1042296A091D204B091EF
:10127000D304129728F0E0E0E093D204E093D30483
:101280000E945F1618950E94CD1A10E020E030E011
:10129000989B44C00E94EF11E4E0F0E0EC15FD05DE
:1012A000E1F5E5E0F0E00E946D16E0914B04F0916D
:1012B0004C040E947516E4E0F0E00E946D16E09187
:1012C0004904F0914A040E9475160E9479160E9402
:1012D0007E160E9484160E9475160E9489160E942E
:1012E0007E160E948E160E9475160E9493160E940A
:1012F0009316BEDBE0914504F09146040E947516FA
:101300000E9498160E949316B3DBE0914704F09177
:1013100048040E9475160E949D16BACFE22FF2C4AF
:101320001A930A930E94A3160E94A916ECE6F2E013
:101330000E946615AC9AAD9A989B60C0E4E0EA936F
:1013400057DCE093BE04F093BF04E5E0EA9350DC81
:10135000E093C004F093C1040E94AF16E091BE0474
:10136000F091BF040E9462150E9493160E94B2166B
:10137000E091C004F091C1040E946215A091BE04E6
:10138000B091BF04AB3FE0E0BE0730F0E6E1EA9386
:10139000FBDCEAE00E94B816A091C004B091C10441
:1013A000AB3FE0E0BE0730F0EAE0EA93EDDCE6E1D7
:1013B0000E94B816A091BE04B091BF04ECE2F1E027
:1013C0000E94E3190E2EA091C004B091C104ECE27A
:1013D000F1E00E94E319E02131F0E6E1EA93CEDC8E
:1013E000E6E1EA93E3DC0F5F1F4F0333E0E01E0703
:1013F00020F000E010E00E94C1169ECF09911991E3
:1014000008950E94CD1A00E010E020E030E000E0F6
:1014100010E00530E0E01E075CF40E94C516AE0F38
:10142000BF1FE0E0F0E0ED93FC930F5F1F4FF1CFA3
:1014300020E030E02233E0E03E0714F00C94620A32
:10144000E0E0EA93D5DBA091C204B091C304EA0FB7
:10145000FB1FE093C204F093C304E1E0EA93C8DB0E
:10146000A091C404B091C504EA0FFB1FE093C4042B
:10147000F093C504E2E0EA93BBDB0E94CB16EA0FCF
:10148000FB1FE093C604F093C704E3E0EA93B0DBEC
:10149000A091C804B091C904EA0FFB1FE093C804EF
:1014A000F093C904E7E0EA93A3DBA091CA04B091EA
:1014B000CB04EA0FFB1FE093CA04F093CB042F5F29
:1014C0003F4FB8CF00E010E00530E0E01E07ACF47D
:1014D0000E94C516EA0FFB1FBF010E94C5160E949D
:1014E000D0167996DF01E2E3F0E00E941B1ADB01DF
:1014F000ED93FC930F5F1F4FE7CF04C426970E9424
:101500003216E0E0EA83EB83EC83ED830E94CB1A92
:1015100010E020E030E00E94A3160E949316A8DAA3
:10152000E7E7F2E00E9466150E9493160E94A91652
:10153000E2E8F2E00E946615AC9AAD9A0E94D516D8
:10154000153068F40E94DE160E94D0164E175F0711
:1015500020F40E94DE160E94E5161F5FF1CF202FB7
:101560003327989BBEC00E94D516153068F40E94A0
:10157000DE160E94D0164E175F0720F40E94DE167A
:101580000E94E5161F5FF1CF0E94EB16E21BF30BE2
:10159000DF0132972CF4FD01EF3FAFEFFA070CF4B7
:1015A00034C00E94EB16309749F40E94EE160E9458
:1015B000F216E1E0F0E0EE83FF8325C0E130A0E029
:1015C000FA0729F40E94EE160E94F6161CC0E230BB
:1015D000A0E0FA0729F40E94FA160E94F61613C03A
:1015E000E330A0E0FA0729F40E94FA160E94FE16E2
:1015F0000AC0E430A0E0FA0731F40E940217E1E0EB
:10160000F0E0E887F987202F3327A885B98511975F
:1016100019F40E94071709F41FC00E9402170E94C4
:10162000D516153068F40E94DE160E94D0164E17AB
:101630005F0720F40E94DE160E94E5161F5FF1CFBF
:10164000202F33270E94CB16A53FE1E0BE0718F0FC
:10165000E0E0E887E987D9CFAE81BF81119719F41F
:101660000E94071709F421C00E94EE160E94F2168C
:101670000E94D516153068F40E94DE160E94D0161E
:101680004E175F0720F40E94DE160E94E5161F5FCA
:10169000F1CF202F33270E94CB16A53FE1E0BE07F4
:1016A00018F0E0E0EE83EF83D7CF0E9479160E9416
:1016B000A9160E94EB160E9475160E940C175A93E9
:1016C0004A9376DAEA85FB853196EA87FB87AA8515
:1016D000BB855F9728F0E0E0EA87EB870E94C116A0
:1016E00040CF0E94D21A2C960895E79787E3A0E096
:1016F000B0E0EEE4F2E00E94D91A0E94CB1A00E0BA
:1017000010E020E030E040E050E00E94A3160E948C
:101710009316AED9EAE8F2E00E9466150E9493168D
:101720000E94A916E5E9F2E00E946615AC9AAD9A0E
:101730000E9411170530E0E01E078CF40E94C516C8
:101740000E94D0160E941E1738F40E94C5160E94EF
:10175000D016EBA3FCA3A8010F5F1F4FEBCF4E8366
:101760005F83E0E0F4E0EBA3FCA3EE8FEF8F989BA8
:1017700040C047DE01E010E00530E0E01E078CF4D9
:101780000E94C5160E94D0160E941E1738F40E94AF
:10179000C5160E94D016EBA3FCA3A8010F5F1F4F34
:1017A000EBCF0E9479160E94A916EBA1FCA10E9422
:1017B000751601E010E00530E0E01E079CF40E9481
:1017C000C5160E94D016AE8DBF8DAE17BF0738F478
:1017D0000E94C5160E94D016EE8FFF8F0AA30F5FDE
:1017E0001F4FE9CF0E940C17EE8DFF8D0E947516DA
:1017F000BECFE0E0EDA7EEA7EFA7E8AB02DE00E08A
:1018000010E00530E0E01E0714F00C944E0C0E942E
:10181000C5160E94D01666277727E9ABFAAB6BABEB
:101820007CABA9A9BAA98BA99CA9A831E1E0BE0704
:10183000E0E08E07E0E09E0744F4E1E0F0E060E0E5
:1018400070E0EDA7FEA76FA778ABF801A8EEB3E0B4
:101850000E94111ADF01E9A9FAA96BA97CA90E94CB
:10186000DE190E94161AA9A5BAA58BA59CA50E94EF
:10187000C319E9A7FAA76BA77CA7E9A9FAA96BA9DD
:101880007CA9ADA1BEA18FA198A50E94C319EDA30B
:10189000FEA36FA378A70F5F1F4FB3CFADA5BEA563
:1018A0008FA598A9A130E0E0BE07E0E08E07E0E058
:1018B0009E0701F5EDA1FEA16FA178A5A9A5BAA586
:1018C0008BA59CA50E94581A662777270E94D919D4
:1018D000EDABFEAB6FAB78AFE0E0EDA7EEA7EFA707
:1018E000E8ABE9A7EAA7EBA7ECA7EDA3EEA3EFA36C
:1018F000E8A719C0A9ADBAAD8BAD9CADA039E7E0A2
:10190000BE07E0E08E07E0E09E072CF0E0EDF7E098
:1019100060E070E004C0E8E0F7E060E070E0EDABAC
:10192000FEAB6FAB78AFADA9BEA98FA998ADEFE8BC
:10193000F7E060E070E00E94C8190E9486180E94DB
:1019400023170E942817E0E0F0E068EC72E40E94A0
:10195000A31909F010F40C94AF0C0E9423170E94F5
:101960002817E0E0F0E068EC72EC0E94A31910F494
:101970000E9423170E942817E0E0F0E06CE072E478
:101980000E942D170E943617A889B9898A899B89D8
:10199000E0E0F0E060EC70E40E94A31909F010F4BC
:1019A0000C94D40C0E943617A889B9898A899B891E
:1019B000E0E0F0E060EC70EC0E94A31910F40E94EB
:1019C00036170E942817E0E0F0E060EE70E40E9415
:1019D0002D177F936F93FF93EF930E943B17EC8536
:1019E000FD856E857F850E94B918DF01CB01E0E09F
:1019F000F0E060EF71E40E945E19AF91BF918F91AA
:101A00009F910E94C0180E9440170E9445170E9493
:101A10004A170E94A31909F010F40C94150DE0E088
:101A2000F0E060E171E40E944F170E944517E0E08A
:101A3000F0E060E271EC0E94A31930F4E0E0F0E025
:101A400060E171EC0E944F17EC89FD896E897F89F6
:101A5000A0E0B0E080E291E40E94C0180E944D181E
:101A6000EA938CD90E9445170E944A170E94B91820
:101A70000E944D18EA939AD9EDA9FEA96FA978ADF5
:101A8000E9AFFAAF6BAF7CAFEC85FD856E857F85E6
:101A9000E887F9876A877B87B1CE989BE0C00E9470
:101AA00011170530E0E01E078CF40E94C5160E9455
:101AB000D0160E941E1738F40E94C5160E94D01638
:101AC000EBA3FCA3A8010F5F1F4FEBCF0E94891669
:101AD0000E94A916EE81FF810E9475160E94791658
:101AE0000E94A9165A934A930E94D8050E940C1787
:101AF000EBA1FCA10E947516AE81BF81FA01EA1B21
:101B0000FB0BDF0132972CF4FD01EF3FAFEFFA073B
:101B10000CF438C0FA01309749F40E94EE160E9486
:101B2000F616E1E0F0E0E88FF98F2AC0E130A0E09E
:101B3000FA0739F4E2E0EA9321D9E8E0EA9336D9EA
:101B40001FC0E230A0E0FA0739F4EAE0EA9316D9C0
:101B5000EAE0EA932BD914C0E330A0E0FA0721F4BD
:101B6000E8E00E9456170CC0E430A0E0FA0741F408
:101B70000E94FA160E94FE16E1E0F0E0EA8FFB8F69
:101B80004E835F83AA8DBB8D119719F40E940717AE
:101B900009F426C0E4E10E9456170E94111705308F
:101BA000E0E01E078CF40E94C5160E94D0160E9429
:101BB0001E1738F40E94C5160E94D016EBA3FCA392
:101BC000A8010F5F1F4FEBCF4E835F830E94CB16A0
:101BD000A633E1E0BE0718F4E0E0EA8FEB8FD2CF46
:101BE000A88DB98D119719F40E94071709F428C020
:101BF000E2E0EA93C3D80E94F2160E941117053062
:101C0000E0E01E078CF40E94C5160E94D0160E94C8
:101C10001E1738F40E94C5160E94D016EBA3FCA331
:101C2000A8010F5F1F4FEBCF4E835F830E94CB163F
:101C3000A633E1E0BE0718F4E0E0E88FE98FD0CFEB
:101C4000EC8DFD8D3196EC8FFD8FAC8DBD8D5F974A
:101C500028F0E0E0EC8FED8F0E94C1161ECF0E94AD
:101C6000D21AED9608950E94CD1A0E945D170E9427
:101C7000A916EDE9F2E00E9466150E949316E9E1CB
:101C8000F0E00E946017E7EAF2E00E946615AC9A65
:101C9000AD9A989B37C00E946417E0911005E03020
:101CA00081F10E9489160E94B2160E942F061E2FF3
:101CB0001A930E944405133519F4E0E00E9474174A
:101CC000163419F4E4E60E947B17123431F4E4E68A
:101CD000EA935AD8E4E6EA936DD8123519F4E4E6AB
:101CE0000E9474171C3419F4E0E00E947B172F5FE8
:101CF0003F4F293EE3E03E0720F020E030E00E9425
:101D0000C116C7CF0E94D41A249608950E945D1769
:101D10000E94A916EDEAF2E00E9466150E94F216F2
:101D2000E4E1EA932BD8989B25C00E948217E8EB48
:101D3000F2E00E9466150E948916EDE2F0E00E9432
:101D400060170E943B160E946215E3E0F0E00E94DB
:101D50002815EFEBF2E00E9466150E947916EDE27D
:101D6000F0E00E9460170E9436160E9462150E94E1
:101D70008517D9CF2AD80E94CA060895E091100588
:101D8000E03069F00E945D170E94A916E6ECF2E0CF
:101D90000E9466150E942F06EA930E946F0608951E
:101DA00008956097E0E0EABBEBBB0E947B050E94D0
:101DB00098160E94A916E0EDF2E00E946615989B25
:101DC00091C0E0E0EA930E94F805E883F983E1E03E
:101DD000EA930E94F805EA83FB83E2E0EA930E941B
:101DE000F805EC83FD83E3E0EA930E94F805EE83B7
:101DF000FF83E4E0EA930E94F805E887F987E5E0CD
:101E0000EA930E94F805EA87FB87E6E0EA930E94DE
:101E1000F805EC87FD87E7E0EA930E94F805EE8776
:101E2000FF870E94AF16E8EDF2E00E946615E88198
:101E3000F9810E948B170E9493160E948F17EBED79
:101E4000F2E00E946615EA81FB810E948B170E94D6
:101E50008217EEEDF2E00E946615EC81FD810E9492
:101E60008B170E9489160E948F17E1EEF2E00E9404
:101E70006615EE81FF810E948B17E3E0F0E00E947F
:101E80002815E4EEF2E00E946615E885F9850E94C7
:101E90008B170E9479160E948F17E7EEF2E00E94DE
:101EA0006615EA85FB850E948B17E4E0F0E00E944E
:101EB0002815EAEEF2E00E946615EC85FD850E9489
:101EC0008B17E4E0F0E0FA93EA930E948F17EDEEAF
:101ED000F2E00E946615EE85FF850E948B170E9436
:101EE00057156DCF609608950E945D17E5E0F0E00C
:101EF0000E946017E0EFF2E00E9466150E94AF16A4
:101F0000ECEFF2E00E94661508951A93EFEFEABB3A
:101F10000E94921739F4AD9AAC9ADC9A0E94851708
:101F2000AC985DC0E230A0E0FA0741F4AD9AAC9AFB
:101F3000DE9A0E948517AC98DE9852C0E330A0E08C
:101F4000FA0741F4AD9AAC9ADF9A0E948517AC98D3
:101F5000DF9846C0E430A0E0FA0741F4AD9AAC9AAD
:101F6000DD9A0E948517AC98DD983AC0E530A0E074
:101F7000FA0731F4AC9AAD9ADC9A0E9485172EC00C
:101F8000E630A0E0FA0741F4AC9AAD9ADE9A0E94DE
:101F90008517AD98DE9824C0E730A0E0FA0741F439
:101FA000AC9AAD9ADF9A0E948517AD98DF9818C059
:101FB000E830A0E0FA0741F4AC9AAD9ADD9A0E94AD
:101FC0008517AD98DD980CC0E930A0E0FA0761F400
:101FD000AC9AAD9ADC9A0E948517AC98AD98DC98C3
:101FE000EEE1F0E00E949917199108950E947B0597
:101FF0000E9498160E94A916E9E0F3E00E94661577
:10200000E5E60E949D17E7E6E5BDE0E0E4BDE3BD3F
:10201000989B13C0AC9AAD9AE2E0ECBFE3BDE0ED53
:10202000F7E00E949917AC98AD98EAE0ECBFE3BDE9
:10203000E0EDF7E00E949917EBCFE0E00E949D17DA
:10204000E0E0E5BDE4BDE3BD08950E94A317E2E131
:10205000F3E00E9466150E949D16A091B504B09110
:10206000B604119711F00C94DF104FDF98996AC0F5
:10207000E091BD04EF5FE093BD04A091BD04AC30DE
:1020800018F0E1E0E093BD040E94921729F40E9449
:10209000A317EFE1F3E050C0E230A0E0FA0729F423
:1020A0000E94A317ECE2F3E047C0E330A0E0FA0798
:1020B00029F40E94A317E9E3F3E03EC0E430A0E076
:1020C000FA0729F40E94A317E6E4F3E035C0E530EF
:1020D000A0E0FA0729F40E94A317E3E5F3E02CC07F
:1020E000E630A0E0FA0729F40E94A317E0E6F3E047
:1020F00023C0E730A0E0FA0729F40E94A317EDE619
:10210000F3E01AC0E830A0E0FA0729F40E94A31710
:10211000EAE7F3E011C0E930A0E0FA0729F40E94F1
:10212000A317E7E8F3E008C0EA30A0E0FA0751F4AB
:102130000E94A317E3E9F3E0FA93EA930E94620591
:102140000E949D1699993AC00E94921711F4E8D8FE
:1021500035C0E230A0E0FA0711F485DD2FC0E3308E
:10216000A0E0FA0711F4CAD929C0E430A0E0FA07C8
:1021700011F4BBDA23C0E530A0E0FA0711F4C6DDA4
:102180001DC0E630A0E0FA0711F40BDE17C0E730FF
:10219000A0E0FA0711F404DE11C0E830A0E0FA076D
:1021A00011F4ECDD0BC0E930A0E0FA0711F41EDFFA
:1021B00005C0EA30A0E0FA0709F465D84ECF0895CB
:1021C000E0919504F09196046091970470919804C1
:1021D000AEE1B5E00E94C614A0E2B5E0E09199043A
:1021E000F0919A0460919B0470919C040E94C61423
:1021F00008952497FE013496DE0184E00E94B31A0C
:10220000FE0184E01FB6F8940C94F313E0E0E2BD05
:10221000EFE0E5BDE2E1E4BDEEEFE3BDE9B7E06884
:10222000E9BF08950E941E161A9310E00E9420052F
:10223000A0911C05AF5FA0931C05A150A23008F42B
:10224000CAC0E0E0E0931C05E9E5F4E0FA93EA9304
:102250000E944C03E13011F00C94EB112E9710E02A
:102260001C3160F4A12FB0E0A153BC4F0E94301587
:10227000E75AFB4FE081EC931F5FF2CF0E94A61755
:102280000E94941A0E944A170E94941A0E94E01217
:102290000E944D186F010E94AF17EFECF3E0ACE124
:1022A0000E94991A0E94F106DE010E94B31A1FBE15
:1022B000F601E130A0E0FA0721F4FE01ABEEB3E055
:1022C00027C0E230A0E0FA0721F4FE01A9EFB3E055
:1022D0001FC0E330A0E0FA0721F4FE01A7E0B4E05C
:1022E00017C0E430A0E0FA0721F4FE01A5E1B4E054
:1022F0000FC0E530A0E0FA0721F4FE01A3E2B4E04C
:1023000007C0E630A0E0FA0731F4FE01A1E3B4E033
:102310008EE00E94B31AE4E0F0E0EC15FD0511F048
:102320000C94EA11AC9B02C0AC9801C0AC9A0E941C
:10233000AF17E1E0E0931D05FE01AFE3B4E08EE0EE
:102340000E94B31AA0914104B0914204E0911E058D
:10235000F0911F05AE1BBF0BA436E0E0BE0774F47E
:10236000A0914304B0914404E0912005F09121052F
:10237000AE1BBF0BA436E0E0BE0704F128970E9415
:102380008416E883F9830E948E16EA83FB83FE019C
:10239000A4E00E94991A2DDFDE0114960E94B31A60
:1023A0001FBEEC81FD81E0934104F0934204EE8175
:1023B000FF81E0934304F093440428960E9484161E
:1023C000E0931E05F0931F050E948E16E0932005F2
:1023D000F09321052E9619910E945F161895E0E062
:1023E0000895AE97E4E0F0E0E8A3F9A3E6EDFFEF8F
:1023F000EAA3FBA3E0E3F0E0ECA3FDA3EDEDFFEF28
:10240000EEA3FFA3EEECFFEFE8A7F9A7E0E0EAA751
:10241000EBA7ECA7EDA7EFEFEABBEFEBE7BBECEF29
:10242000E4BBE2EFE1BBE0E4E7B9E3E8E6B9E1EA07
:10243000EFBDE2E0EEBDE0E0EDBDECBDE7BDE6BD29
:10244000EBBDEABDE9BDE8BDE4E0E9BF00E0013075
:1024500020F40E9464170F5FFACF0E94EC050E94DF
:10246000F1050E94B0020E9440030E94B4060E943F
:102470009406CCDEA5DE78940E9498160E94A916D8
:10248000E0EAF3E00E9466150E94AF16EBEAF3E083
:102490000E94661598991DC0A7EBB4E00E942C1607
:1024A000A091B704B091B8041B9770F0989BFECF31
:1024B000E0E0E093B704E093B804E1E0F0E0E093FB
:1024C000B504F093B604C1DDE4E6F0E00E9499178C
:1024D000E1CF0E948217E8EBF3E00E9466150E94AC
:1024E0003707EFE3F4E0AEE00E94991A0E949816D5
:1024F0000E9498160E949816E6E6EA930E94C2038C
:10250000E091B904F091BA04FA93EA93E091BB0424
:10251000F091BC04FA93EA930E949903E2CFFFCFB3
:10252000E881EFB9779BFECFEFB1219608957B81CB
:102530006A81F981E88177FB770F67FD7160972FDA
:102540009E5781F078F0983190F4AA27BB2788270E
:1025500008948795B795A7959A95D1F7EA23FB2319
:10256000682305C0E8947727EE27FF2766276F7753
:10257000769508F4606877F9A991B9918991999154
:10258000EA17FB076807790797FB08950E94B917B8
:102590000E94BC1719F40E94B91763C1E6F70E94A4
:1025A000C3170E94B9185DC10E94B9170E94BC17D9
:1025B00019F40E94B91755C1E6F30E94C3174FC121
:1025C00024970E94A2140E94BD1A29F4E0E0F0E0D2
:1025D00060E070E091C10E94C9170E94B9170E9483
:1025E000BD1A29F4E0E0F0E060E070E085C10E94EF
:1025F000D0170E94C51A24F40E94D317C7DF03C066
:102600000E94D317D1DF0E948F1A0E94B9170E942F
:10261000D7170E9410190E943B170E94E9146CC141
:1026200024971A9310E00E94DC17E3E8F9EF62E2C6
:102630007EE30E9410190E94E1170E94E6170E9493
:10264000941AA4DF0E94DC170E94E9140E94E1178B
:102650000E94EB170E94A31909F010F40C943B138D
:102660000E94E617A0E0B0E080E09FE30E94B91866
:102670000E94E11711E00E94DC17E0E0F0E060E862
:102680007EE30E94A31909F010F40C944D130E94EC
:10269000EB170E94B9180E94E117103031F00E9428
:1026A000E6170E941A180E94E1170E94E6170E947E
:1026B000DC170E941019E983FA836B837C83A1EBFA
:1026C000B4EC86E292E40E941019DF01CB01EDE147
:1026D000F5EE6DE272E40E94E9140E94F117ACE499
:1026E000B3E584E091E40E94C0180E94DC170E94C8
:1026F00010197F936F93FF93EF93E981FA816B81B8
:102700007C81A1E1BDEE8EED9FE30E94C0180E9486
:10271000F117AEE5BBE788EA9FE30E94C018AF91CE
:10272000BF918F919F910E945E19188129960895FB
:102730000E94D017EBEDFFE069EC7FE30E94B9182F
:102740000E94941A6DDF8DC024970E94A2140E94EB
:10275000941AEEDF0E948F1A0E94BD1A79F40E942B
:10276000D7170E94C51A2CF4EFEFFFEF6FE77FE752
:102770003AC0EFEFFFEF6FE77FEF35C00E94A21482
:102780000E94941A4DDFDF01CB010E94B91729C0C6
:1027900024970E94A2140E94D7170E9410190E9429
:1027A0008F1A0E94B917A5E6B0ED8BEC90E40E9459
:1027B000F8170E94D7170E9410197F936F93FF9309
:1027C000EF930E94B917A0E0BDE689E291E40E9470
:1027D000C0180E94D0170E94F817AF91BF918F9137
:1027E0009F910E945E19289608950E94D017EDECE3
:1027F000F3E164ED7EE30E94A31920F40E94D31755
:10280000C7DF2FC00E94D017EAE7F2E86AE170E460
:102810000E94A31909F010F40C9419140E94C31714
:102820000E940118ABEDBFE089EC9FE30E94E91420
:1028300018C00E94C3170E94B9187F936F93FF932B
:10284000EF930E94C3170E94C018AF91BF918F9160
:102850009F910E940118ABEDBFE089E49FE30E94C5
:10286000C0182496089524970E94A2140E94BD1AAD
:10287000D9F4E885F9856A857B850E94BD1A29F41B
:10288000EFEFFFEF6FE77FE737C00E943B170E9433
:10289000C51A2CF4EBEDFFE069EC7FE32DC0EBED06
:1028A000FFE069EC7FEB28C00E94C9170E94D71790
:1028B0000E94C51A64F4AB85AA2322F00E94D317A4
:1028C00094DF1AC00E9407180E941A1815C0AB8521
:1028D000AA234AF00E940718ABEDBFE089E490E418
:1028E0000E94E91409C00E94D3177FDFABEDBFE05F
:1028F00089E490EC0E94C0182C960895FA93EA930C
:10290000E5E0F0E0FA93EA930C942303EA930E9443
:10291000E5021E2F08952497EC85FD856E857F8541
:102920000E948F1AE885F9856A857B850E948A1A3C
:102930000E94A3190895E885F9856A857B850E9420
:102940008F1A0895EC81FD816E817F8108950E9428
:102950008A1A0E94A3190895F5DF0E948F1A08951C
:10296000E0E0E093E004E093E104E093E204E0932C
:10297000E3040895E093DC04F093DD0408950E94DD
:10298000D9190E9486180E94941A08950E944F181F
:10299000ED93FC930895EE89FF890E94D9190E9456
:1029A00086180895EC8DFD8DA88DB98DEA17FB076B
:1029B0000895EE89FF890E94CD19EE8BFF8B089553
:1029C000DF01CB01EBEDFFE069E470E40E94A319A5
:1029D00008950E94A61A0E94B9180895E8A1F9A1C5
:1029E000CECFEE89FF89A9E1B0E00E94111A0895C7
:1029F000EA930E942B05E0E0EA9308951A930A9364
:102A000000E010E0E1E0EA93E0E0EA930E942B05A9
:102A100000E010E00895E1E0EA93EB81F0E0B09788
:102A2000A5E0B0E00E94E919EC5AFF4FE00FF11F5A
:102A3000E491EA930C942B05EA93E0E0EA930C947A
:102A40002B051A930A9300E010E000E010E00895CF
:102A5000FA93EA93E0E0F0E0FA93EA930C943805F5
:102A6000E12FF0E00895DE011196EA0FFB1FBF0190
:102A7000AE81BF81EAE0F0E00E945D1ADB01EC93D9
:102A8000AE81BF81EAE0F0E00E941B1AEE83FF8373
:102A90000895A4E0B0E00E94AC1AEA1BFB0BDE0133
:102AA0001196AE0FBF1FEC91E05DEA930895E8EE3A
:102AB000F3E0FA93EA930C940E18EA1BFB0BE883FD
:102AC000F9830895FA93EA930C94C005FA93EA9374
:102AD0000C946205E150F0E0EA5FFA4F0895E1508E
:102AE000F0E0EF5EFA4F0895AA93BA93EA93FA934F
:102AF000EFB7EA930895E881F0E03CCFE0E0E0939F
:102B00009D04E0939E04E0939F04E093A004E0936F
:102B1000A104E093A204E093A304E093A404E0E002
:102B2000F0E063E373E4E093A504F093A6046093FC
:102B3000A7047093A804E093A904F093AA046093F7
:102B4000AB047093AC040895EAE9F9ED66E873E428
:102B5000E0939504F093960460939704709398041F
:102B6000EAE9F9E969ED7FE3E0939904F0939A04C7
:102B700060939B0470939C04E0E0F0E060EA72E4F0
:102B8000E0938104F093820460938304709384043F
:102B9000E0E0F0E062E873E40895E0E0F0E064E88B
:102BA00072E4E0939504F093960460939704709315
:102BB0009804EDECFCEC6EE972E40895E0E0F0E0DE
:102BC00067E873ECE0938104F093820460938304DC
:102BD000709384040895E0E0F0E067E873E4E09324
:102BE0008504F093860460938704709388040895A5
:102BF000E093A504F093A6046093A7047093A8043F
:102C0000E0E0F0E063E373E40895E6E6F6E668E505
:102C100072E4E0939504F0939604609397047093A4
:102C20009804EDECFCEC67EC72ECE0939904F09303
:102C30009A0460939B0470939C04C0CF0A921A92EA
:102C4000FA926A937A938A939A93AA93BA93EA939D
:102C5000FA93EFB7EA930895ED91FD913196FE93C3
:102C6000EE930895E0E0E883E9830895E091040598
:102C7000F09105050895E0910205F091030508958E
:102C8000A091E004B091E1040895E093E004F09392
:102C9000E1040895A091E204B091E3040895E09363
:102CA000E204F093E3040895E6DFA0910405B091F7
:102CB0000505AE0FBF1FFD01F695E7950895E99153
:102CC000EFBFF991E991B991A99199918991799180
:102CD0006991F990199009900895FA93EA93E8E2BE
:102CE000F0E0FA93EA930C943805FA93EA930C9483
:102CF000D805E3E0F0E0FA93EA930895E4E1F0E028
:102D0000FA93EA930C943805E0914104F09142045F
:102D10000895E2E0F0E0FA93EA930895E091430425
:102D2000F09144040895E1E0F0E0FA93EA93089505
:102D3000E0E0F0E0FA93EA930895E8ECF0E0FA932B
:102D4000EA930C940E18E0E0EABBEBBB0E946E0520
:102D5000EFCFEAE0F0E0FA93EA930C943805E1E073
:102D6000F0E076CEEAE2F0E0FA93EA930C943805CC
:102D7000EA930E94DA06E8E5F2E0FA93EA930C940B
:102D80000E180E941A050C942005F801A2ECB4E07C
:102D9000EE0FFF1F0895A091C604B091C7040895D7
:102DA000AE0FBF1F0E94811A08950E94010A409130
:102DB000C2045091C30400E011E00895E12FA2EC99
:102DC000B4E0F0E0EE0FFF1F0895AE0FBF1F4D916E
:102DD0005C91012F0895E02FF0E00895E1E0EA937F
:102DE0000C94BE06E4E1EA930C94D606EFE0EA9375
:102DF0000C94D606EFE0EA930C94BE06E1E0EA9369
:102E00000C94D606E4E1EA930E94BE06F7CFA0E058
:102E10009899A1E0A0300895E4E0F0E0FA93EA93F5
:102E200098CF0E94010AE091C204F091C304EBA381
:102E3000FCA340E050E001E010E00895ABA1BCA18C
:102E4000EA17FB070895EC87FD876E877F87089553
:102E5000AC85BD858E859F8508950E945E19A889E1
:102E6000B9898A899B890E94C0180895E88BF98BDB
:102E70006A8B7B8B0895A885B9858A859B85089583
:102E8000EC8BFD8B6E8B7F8B0895AC89BD898E8911
:102E90009F890895E0E0F0E060E271E40895F0DFDA
:102EA000E0E0E88BE98BEA8BEB8B0895EA930E94D4
:102EB000BE06E2E0EA930C94D6060E946E0538CF77
:102EC000FA93EA930C943805AC9AAD9AE4E6F0E0F4
:102ED000FA93EA930E940E18AC98AD98E4E6F0E0FD
:102EE000FA93EA930C940E18EA930E94BE06E0E06F
:102EF000EA930C94D606EA930E94BE06E4E6EA93AF
:102F00000C94D606E2E0F0E0A3CDEAE0F0E0FA931C
:102F1000EA930C940E18FA93EA930C948E05EBE264
:102F2000F0E0CECFE091BD04F0E0E130A0E0FA07A0
:102F30000895FA93EA930C940E18E3BFE0E0E2BF21
:102F4000ECBFE2BD08950E94740FDCCFE091CF0387
:102F5000F091D0036091D1037091D2030895F6DF10
:102F60000E944F18DF01EAE0F0E00E942E1A5F0194
:102F700008950E94851A08950E94941A0E9497123B
:102F80000E948F1A0895F5DFA0E0B0E080E89FE38B
:102F90000895D8DC70DF0E945E190E948F1A089590
:102FA0000E948A1A0895E5DF0E94941A0895AC8160
:102FB000BD818E819F810895AD81BE818F8198856D
:102FC0000895ED83FE836F8378870895ED81FE81F8
:102FD0006F8178850895F0DFE0E0F0E060E07FE366
:102FE0000895A981BA818B819C810E94101908954E
:102FF0000E941019AEE4BFE88AE491E40E94C01870
:1030000008950E945E190E94941A0C94C813B1DFAF
:103010000E941A180E94941A0C94F513E991F991E0
:10302000309639F080ED97E00197F1F7A895319748
:10303000C9F7089530976040704009F070580895BE
:10304000552342F4503811F4E0FF04C03196691F53
:10305000791F6BF050E8572711F45F93CFC05F3FA3
:1030600031F0660F000C57956795752F08955F93A3
:1030700000200AF0CFC0C8C050E8192E1522880FD2
:10308000991F9527550F879550E8072E0522660F43
:10309000771F7527550F67950895689401C0E894C8
:1030A0005F93F2DF703818F07F3F08F4A7C056E155
:1030B000571BAAF4519558300EF4593030F0EFEF09
:1030C000FFEF6FEF7FE777F91AC077275523B9F045
:1030D000EE0FFF1F661F771F5A95D1F710C0772795
:1030E000583028F0EF2FF62F672F5850F9CF55237F
:1030F00031F076956795F795E7955A95D1F70020C9
:103100000AF44FD15F910895689401C0E894309714
:1031100060407040B1F0002426F0772312F4009450
:1031200040D1172E7EE1112032F07A95EE0FFF1F6D
:10313000661F111CF9CFEF2FF62F612D5F938ADFE9
:103140005F9108954F93AF01FD01DA01AB01BC011E
:10315000CA01402D012C142E4F910895EA0FFB1F38
:10316000681F0895E095F0956095EF5FFF4F6F4FF2
:1031700008955F9381DF903871F150E8152604C0FF
:103180005F937ADF903839F1703821F1572F591B4E
:103190002BF112F4D7DFFACF583118F0AA27BB274A
:1031A0008827583028F0AB2FB82F88275850F9CFF0
:1031B000552329F08695B795A7955A95D9F7502D9F
:1031C000512572F0CBDF38F46795F795E795739545
:1031D00013F420C0B7DF3EDF5F910895D8F7FBCF2F
:1031E000EA1BFB0B680B51F010F40094BBDF662365
:1031F00092F3EE0FFF1F661F7A95CBF7EE27FF279E
:10320000662777275F910895EFEFFFEF6FE77FEF76
:103210005F910895EFEFFFEF6FE77FE75F9108950C
:103220005F932ADF703851F3903841F301240894FA
:10323000791F23F41CF300203AF3ECCF0F921F9375
:103240002F933F934F93112722279927689FA0011F
:103250008F9F302D410D591F6B9F300D411D591F00
:103260008E9F27D0BF9F25D06A9F23D0BE9F1DD0A1
:10327000AF9F1BD0AE9F110D291F391F491F591F2A
:10328000E32FF42F652F522F4F913F912F911F91D4
:103290000F9066232AF0550FEE1FFF1F661F02C016
:1032A00073954BF2CDDE5F910895100D211D391FEE
:1032B00002C0200D311D491F591F08955F93DCDEA8
:1032C000703821F411200AF49FCFA4CF903809F46C
:1032D00095CF01240894970B1BF4D4F30020F3CF6F
:1032E000792F1F932F933F934F9311241127222758
:1032F00033274427552790E2AE17BF0786074107BB
:1033000030F0AE1BBF0B860B410B089401C08894B4
:10331000551F221F331F111CAA1FBB1F881F441FCC
:103320009A9551F7F901612D4F913F912F911F917E
:10333000662332F0550FEE1FFF1F661F7A9543F28A
:103340007FDE5F91089599239AF0772342F09717D3
:1033500048F029F4AE17BF07860720F031F09894A3
:1033600088940895989408940895189488940895DA
:103370007723C2F7971798F3A9F7EA17FB076807AF
:1033800088F399F3ECCFEA0FFB1F681F791F0895AC
:10339000EA1BFB0B680B790B0895F195E195F04062
:1033A0000895F09560957095E195FF4F6F4F7F4FB1
:1033B00008956F2F660F660B762F08958B2F880F59
:1033C000880B982F0895AE17BF07E1E008F0EE27AD
:1033D0000895FA9FF02DEB9FF00DEA9FE02DF10D7F
:1033E00008957A9F702D6B9F700DF89F700DE99F67
:1033F000700D6A9F602D710DFB9F600D711DE89F20
:10340000600D711D8827FA9FF02D610D781FEB9FCD
:10341000F00D611D781FEA9FE02DF10D681F781FE8
:1034200008954ED0D6DF0EF4B8DF089557D0D9DF17
:103430000EF4B7DF08950024112490E1AA0FBB1FFA
:10344000001C111C0E1A1F0A18F40E0E1F1E01C0BC
:10345000A1609A9599F7FD01D001089531D0EBDF75
:103460000EF49BDF08953F934F935F930024112444
:103470004427552730E2AA0FBB1F881F991F001C45
:10348000111C441F551F0E1A1F0A460B570B28F418
:103490000E0E1F1E461F571F01C0A1603A9559F717
:1034A000FD01BC01D001CA015F914F913F91089588
:1034B00015D0D9DF0EF475DF0895BDDFFD01089545
:1034C000E894F7FF02C069DF6894B7FF06C0A095D3
:1034D000B095119600F8039400FA0895E89477FFE8
:1034E00002C05FDF689497FF0BC00024A095B095E1
:1034F000809590951196801D901D00F8039400FA18
:103500000895ED91FC9111970895E881F9816A8100
:103510007B810895A881B9818A819B810895E88380
:10352000F9836A837B8308957A936A93FA93EA9383
:103530000895BB27EA0FFB1F02900A921197E1F74B
:103540000895689401C0E89401D0E1DD182E862F1B
:10355000612D192E972F712D1B2EBF2FF12D1A2E95
:10356000AE2FE12D08959927EF93FF9361916D930D
:103570000197E1F7FF91EF91089530976040704017
:10358000089500240A160B06089500240A160B0657
:103590000806090608955A934A933A932A931A9370
:1035A0000A9308955D814C813B812A8119810881AC
:1035B0000895AC0FBD1F05900D928A95E1F708950F
:00000001FF
